:100000000C9434000C9446000C9446000C9446006A
:100010000C9446000C9446000C9457000C94460037
:100020000C9446000C9446000C9446000C94460038
:100030000C9446000C9446000C9446000C94460028
:100040000C9446000C9446000C9446000C94460018
:100050000C9446000C9446000C9446000C94460008
:100060000C9446000C94460011241FBECFEFD8E03C
:10007000DEBFCDBF21E0A0E0B1E001C01D92A13004
:10008000B207E1F70E9466000C948A000C9400000D
:10009000E0E6F0E080818861808389E280830895D2
:1000A00010920001809100018823E1F308951F92CE
:1000B0000F920FB60F9211248F9381E0809300016D
:1000C0008F910F900FBE0F901F90189585B7806687
:1000D00085BF85B78F79806485BF579A0E94480095
:1000E00078945F9A2FE38DE093E021508040904018
:1000F000E1F700C000005F9883B7817F846083BF11
:1001000083B7816083BF889583B78E7F83BF0E944A
:080110005000E7CFF894FFCF87
:00000001FF
