:100000000C9434000C9446000C9446000C9446006A
:100010000C9446000C9446000C9446000C94460048
:100020000C9446000C9446000C9446000C94460038
:100030000C9446000C9446000C9446000C94460028
:100040000C9448000C9446000C9446000C94460016
:100050000C9446000C9446000C9446000C94460008
:100060000C9446000C94460011241FBECFEFD8E03C
:10007000DEBFCDBF21E0A0E0B1E001C01D92A930FC
:10008000B207E1F70E9492000C94EC000C9400007F
:100090001F920F920FB60F9211242F933F938F93BD
:1000A0009F93AF93BF938091050190910601A0911A
:1000B0000701B09108013091040120E3230F2D378F
:1000C00058F54096A11DB11D2093040180930501B0
:1000D00090930601A0930701B0930801809100015D
:1000E00090910101A0910201B09103010196A11D1F
:1000F000B11D8093000190930101A0930201B09380
:100100000301BF91AF919F918F913F912F910F90DC
:100110000FBE0F901F90189523EB230F4196A11D42
:10012000B11DD2CF789484B5826084BD84B58160DE
:1001300084BD85B5826085BD85B5816085BD8091B2
:100140006E00816080936E0010928100809181002A
:100150008260809381008091800081608093800024
:100160008091B10084608093B1008091B000816083
:100170008093B00080917A008B7F80937A00809189
:100180007A00826080937A0080917A008160809307
:100190007A0080917A00806880937A001092C10082
:1001A000579AC0E0D0E05F9A2FE38DE093E02150B2
:1001B00080409040E1F700C000005F9A2FE38DE09F
:1001C00093E0215080409040E1F700C0000020976C
:0C01D00051F30E940000E7CFF894FFCF2D
:00000001FF
