:100000000C942A000C943C000C943C000C943C0092
:100010000C943C000C943C000C943C000C943C0070
:100020000C943C000C943C000C943C000C943C0060
:100030000C943C000C943C000C943C000C943C0050
:100040000C943C000C943C000C943C000C943C0040
:100050000C943C0011241FBECFE5D4E0DEBFCDBF21
:1000600020E0A0E6B0E001C01D92A136B207E1F7A2
:100070000E947C000C948F000C9400008FE081BDE6
:1000800008958FE081BD089581B5806181BD81B5FE
:10009000877F81BD0895109260000E944400809186
:1000A00060008823E1F308951F920F920FB60F921C
:1000B00011242F933F934F935F936F937F938F936D
:1000C0009F93AF93BF93EF93FF930E94440081E00F
:1000D00080936000C098FF91EF91BF91AF919F9185
:1000E0008F917F916F915F914F913F912F910F90E1
:1000F0000FBE0F901F9018953798B8988FE081BD6C
:10010000789485B78F74806285BF85B7806485BF1A
:10011000889585B78F7B85BF0E944B00F2CFF894FE
:02012000FFCF0F
:00000001FF
